{"project/contracts/MetaTest.sol":{"MetaTest":{"abi":[{"inputs":[],"name":"getNum","outputs":[{"internalType":"uint256","name":"","type":"uint256"}],"stateMutability":"view","type":"function"},{"inputs":[],"name":"num","outputs":[{"internalType":"uint256","name":"","type":"uint256"}],"stateMutability":"view","type":"function"}],"evm":{"bytecode":{"linkReferences":{},"object":"608060405260025f553480156012575f5ffd5b50608980601e5f395ff3fe6080604052348015600e575f5ffd5b50600436106030575f3560e01c80634e70b1dc14603457806367e0badb14604d575b5f5ffd5b603b5f5481565b60405190815260200160405180910390f35b5f54603b56fea26469706673582212207c7b3b7d6f2e84730860a5ac103e45c50e6855fdd1824bdce5903fc9806aa96264736f6c634300081c0033","opcodes":"PUSH1 0x80 PUSH1 0x40 MSTORE PUSH1 0x2 PUSH0 SSTORE CALLVALUE DUP1 ISZERO PUSH1 0x12 JUMPI PUSH0 PUSH0 REVERT JUMPDEST POP PUSH1 0x89 DUP1 PUSH1 0x1E PUSH0 CODECOPY PUSH0 RETURN INVALID PUSH1 0x80 PUSH1 0x40 MSTORE CALLVALUE DUP1 ISZERO PUSH1 0xE JUMPI PUSH0 PUSH0 REVERT JUMPDEST POP PUSH1 0x4 CALLDATASIZE LT PUSH1 0x30 JUMPI PUSH0 CALLDATALOAD PUSH1 0xE0 SHR DUP1 PUSH4 0x4E70B1DC EQ PUSH1 0x34 JUMPI DUP1 PUSH4 0x67E0BADB EQ PUSH1 0x4D JUMPI JUMPDEST PUSH0 PUSH0 REVERT JUMPDEST PUSH1 0x3B PUSH0 SLOAD DUP2 JUMP JUMPDEST PUSH1 0x40 MLOAD SWAP1 DUP2 MSTORE PUSH1 0x20 ADD PUSH1 0x40 MLOAD DUP1 SWAP2 SUB SWAP1 RETURN JUMPDEST PUSH0 SLOAD PUSH1 0x3B JUMP INVALID LOG2 PUSH5 0x6970667358 0x22 SLT KECCAK256 PUSH29 0x7B3B7D6F2E84730860A5AC103E45C50E6855FDD1824BDCE5903FC9806A 0xA9 PUSH3 0x64736F PUSH13 0x634300081C0033000000000000 "},"methodIdentifiers":{"getNum()":"67e0badb","num()":"4e70b1dc"}}}}}