{"project/contracts/MetaOracle.sol":{"MetaOracle":{"abi":[{"inputs":[{"internalType":"int256","name":"initialPrice","type":"int256"}],"stateMutability":"nonpayable","type":"constructor"},{"inputs":[],"name":"getPrice","outputs":[{"internalType":"int256","name":"","type":"int256"}],"stateMutability":"view","type":"function"},{"inputs":[],"name":"latestRoundData","outputs":[{"internalType":"uint80","name":"roundId","type":"uint80"},{"internalType":"int256","name":"answer","type":"int256"},{"internalType":"uint256","name":"startedAt","type":"uint256"},{"internalType":"uint256","name":"updatedAt","type":"uint256"},{"internalType":"uint80","name":"answeredInRound","type":"uint80"}],"stateMutability":"view","type":"function"},{"inputs":[{"internalType":"int256","name":"newPrice","type":"int256"}],"name":"setPrice","outputs":[],"stateMutability":"nonpayable","type":"function"}],"evm":{"bytecode":{"linkReferences":{},"object":"6080604052348015600e575f5ffd5b50604051610134380380610134833981016040819052602b916031565b5f556047565b5f602082840312156040575f5ffd5b5051919050565b60e1806100535f395ff3fe6080604052348015600e575f5ffd5b5060043610603a575f3560e01c806398d5fdca14603e578063f7a30806146053578063feaf968c146064575b5f5ffd5b5f546040519081526020015b60405180910390f35b6062605e3660046095565b5f55565b005b5f546040805160018082526020820193909352429181018290526060810191909152608081019190915260a001604a565b5f6020828403121560a4575f5ffd5b503591905056fea26469706673582212204e0f7850a59d9b45e20935530b33bb32d6757a58ebd4d60fca2f6bd7a228fed364736f6c634300081c0033","opcodes":"PUSH1 0x80 PUSH1 0x40 MSTORE CALLVALUE DUP1 ISZERO PUSH1 0xE JUMPI PUSH0 PUSH0 REVERT JUMPDEST POP PUSH1 0x40 MLOAD PUSH2 0x134 CODESIZE SUB DUP1 PUSH2 0x134 DUP4 CODECOPY DUP2 ADD PUSH1 0x40 DUP2 SWAP1 MSTORE PUSH1 0x2B SWAP2 PUSH1 0x31 JUMP JUMPDEST PUSH0 SSTORE PUSH1 0x47 JUMP JUMPDEST PUSH0 PUSH1 0x20 DUP3 DUP5 SUB SLT ISZERO PUSH1 0x40 JUMPI PUSH0 PUSH0 REVERT JUMPDEST POP MLOAD SWAP2 SWAP1 POP JUMP JUMPDEST PUSH1 0xE1 DUP1 PUSH2 0x53 PUSH0 CODECOPY PUSH0 RETURN INVALID PUSH1 0x80 PUSH1 0x40 MSTORE CALLVALUE DUP1 ISZERO PUSH1 0xE JUMPI PUSH0 PUSH0 REVERT JUMPDEST POP PUSH1 0x4 CALLDATASIZE LT PUSH1 0x3A JUMPI PUSH0 CALLDATALOAD PUSH1 0xE0 SHR DUP1 PUSH4 0x98D5FDCA EQ PUSH1 0x3E JUMPI DUP1 PUSH4 0xF7A30806 EQ PUSH1 0x53 JUMPI DUP1 PUSH4 0xFEAF968C EQ PUSH1 0x64 JUMPI JUMPDEST PUSH0 PUSH0 REVERT JUMPDEST PUSH0 SLOAD PUSH1 0x40 MLOAD SWAP1 DUP2 MSTORE PUSH1 0x20 ADD JUMPDEST PUSH1 0x40 MLOAD DUP1 SWAP2 SUB SWAP1 RETURN JUMPDEST PUSH1 0x62 PUSH1 0x5E CALLDATASIZE PUSH1 0x4 PUSH1 0x95 JUMP JUMPDEST PUSH0 SSTORE JUMP JUMPDEST STOP JUMPDEST PUSH0 SLOAD PUSH1 0x40 DUP1 MLOAD PUSH1 0x1 DUP1 DUP3 MSTORE PUSH1 0x20 DUP3 ADD SWAP4 SWAP1 SWAP4 MSTORE TIMESTAMP SWAP2 DUP2 ADD DUP3 SWAP1 MSTORE PUSH1 0x60 DUP2 ADD SWAP2 SWAP1 SWAP2 MSTORE PUSH1 0x80 DUP2 ADD SWAP2 SWAP1 SWAP2 MSTORE PUSH1 0xA0 ADD PUSH1 0x4A JUMP JUMPDEST PUSH0 PUSH1 0x20 DUP3 DUP5 SUB SLT ISZERO PUSH1 0xA4 JUMPI PUSH0 PUSH0 REVERT JUMPDEST POP CALLDATALOAD SWAP2 SWAP1 POP JUMP INVALID LOG2 PUSH5 0x6970667358 0x22 SLT KECCAK256 0x4E 0xF PUSH25 0x50A59D9B45E20935530B33BB32D6757A58EBD4D60FCA2F6BD7 LOG2 0x28 INVALID 0xD3 PUSH5 0x736F6C6343 STOP ADDMOD SHR STOP CALLER "},"methodIdentifiers":{"getPrice()":"98d5fdca","latestRoundData()":"feaf968c","setPrice(int256)":"f7a30806"}}}}}