{
  "_format": "hh3-artifact-1",
  "contractName": "MetaNFT",
  "sourceName": "contracts/MetaNFT.sol",
  "abi": [
    {
      "inputs": [
        {
          "internalType": "string",
          "name": "name_",
          "type": "string"
        },
        {
          "internalType": "string",
          "name": "symbol_",
          "type": "string"
        }
      ],
      "stateMutability": "nonpayable",
      "type": "constructor"
    },
    {
      "inputs": [
        {
          "internalType": "address",
          "name": "sender",
          "type": "address"
        },
        {
          "internalType": "uint256",
          "name": "tokenId",
          "type": "uint256"
        },
        {
          "internalType": "address",
          "name": "owner",
          "type": "address"
        }
      ],
      "name": "ERC721IncorrectOwner",
      "type": "error"
    },
    {
      "inputs": [
        {
          "internalType": "address",
          "name": "operator",
          "type": "address"
        },
        {
          "internalType": "uint256",
          "name": "tokenId",
          "type": "uint256"
        }
      ],
      "name": "ERC721InsufficientApproval",
      "type": "error"
    },
    {
      "inputs": [
        {
          "internalType": "address",
          "name": "approver",
          "type": "address"
        }
      ],
      "name": "ERC721InvalidApprover",
      "type": "error"
    },
    {
      "inputs": [
        {
          "internalType": "address",
          "name": "operator",
          "type": "address"
        }
      ],
      "name": "ERC721InvalidOperator",
      "type": "error"
    },
    {
      "inputs": [
        {
          "internalType": "address",
          "name": "owner",
          "type": "address"
        }
      ],
      "name": "ERC721InvalidOwner",
      "type": "error"
    },
    {
      "inputs": [
        {
          "internalType": "address",
          "name": "receiver",
          "type": "address"
        }
      ],
      "name": "ERC721InvalidReceiver",
      "type": "error"
    },
    {
      "inputs": [
        {
          "internalType": "address",
          "name": "sender",
          "type": "address"
        }
      ],
      "name": "ERC721InvalidSender",
      "type": "error"
    },
    {
      "inputs": [
        {
          "internalType": "uint256",
          "name": "tokenId",
          "type": "uint256"
        }
      ],
      "name": "ERC721NonexistentToken",
      "type": "error"
    },
    {
      "anonymous": false,
      "inputs": [
        {
          "indexed": true,
          "internalType": "address",
          "name": "owner",
          "type": "address"
        },
        {
          "indexed": true,
          "internalType": "address",
          "name": "approved",
          "type": "address"
        },
        {
          "indexed": true,
          "internalType": "uint256",
          "name": "tokenId",
          "type": "uint256"
        }
      ],
      "name": "Approval",
      "type": "event"
    },
    {
      "anonymous": false,
      "inputs": [
        {
          "indexed": true,
          "internalType": "address",
          "name": "owner",
          "type": "address"
        },
        {
          "indexed": true,
          "internalType": "address",
          "name": "operator",
          "type": "address"
        },
        {
          "indexed": false,
          "internalType": "bool",
          "name": "approved",
          "type": "bool"
        }
      ],
      "name": "ApprovalForAll",
      "type": "event"
    },
    {
      "anonymous": false,
      "inputs": [
        {
          "indexed": true,
          "internalType": "address",
          "name": "from",
          "type": "address"
        },
        {
          "indexed": true,
          "internalType": "address",
          "name": "to",
          "type": "address"
        },
        {
          "indexed": true,
          "internalType": "uint256",
          "name": "tokenId",
          "type": "uint256"
        }
      ],
      "name": "Transfer",
      "type": "event"
    },
    {
      "inputs": [
        {
          "internalType": "address",
          "name": "to",
          "type": "address"
        },
        {
          "internalType": "uint256",
          "name": "tokenId",
          "type": "uint256"
        }
      ],
      "name": "approve",
      "outputs": [],
      "stateMutability": "nonpayable",
      "type": "function"
    },
    {
      "inputs": [
        {
          "internalType": "address",
          "name": "owner",
          "type": "address"
        }
      ],
      "name": "balanceOf",
      "outputs": [
        {
          "internalType": "uint256",
          "name": "",
          "type": "uint256"
        }
      ],
      "stateMutability": "view",
      "type": "function"
    },
    {
      "inputs": [
        {
          "internalType": "uint256",
          "name": "id",
          "type": "uint256"
        }
      ],
      "name": "burn",
      "outputs": [],
      "stateMutability": "nonpayable",
      "type": "function"
    },
    {
      "inputs": [
        {
          "internalType": "uint256",
          "name": "tokenId",
          "type": "uint256"
        }
      ],
      "name": "getApproved",
      "outputs": [
        {
          "internalType": "address",
          "name": "",
          "type": "address"
        }
      ],
      "stateMutability": "view",
      "type": "function"
    },
    {
      "inputs": [
        {
          "internalType": "address",
          "name": "owner",
          "type": "address"
        },
        {
          "internalType": "address",
          "name": "operator",
          "type": "address"
        }
      ],
      "name": "isApprovedForAll",
      "outputs": [
        {
          "internalType": "bool",
          "name": "",
          "type": "bool"
        }
      ],
      "stateMutability": "view",
      "type": "function"
    },
    {
      "inputs": [
        {
          "internalType": "address",
          "name": "to",
          "type": "address"
        },
        {
          "internalType": "uint256",
          "name": "id",
          "type": "uint256"
        }
      ],
      "name": "mint",
      "outputs": [],
      "stateMutability": "nonpayable",
      "type": "function"
    },
    {
      "inputs": [
        {
          "internalType": "address",
          "name": "to",
          "type": "address"
        }
      ],
      "name": "mintnext",
      "outputs": [
        {
          "internalType": "uint256",
          "name": "",
          "type": "uint256"
        }
      ],
      "stateMutability": "nonpayable",
      "type": "function"
    },
    {
      "inputs": [],
      "name": "name",
      "outputs": [
        {
          "internalType": "string",
          "name": "",
          "type": "string"
        }
      ],
      "stateMutability": "view",
      "type": "function"
    },
    {
      "inputs": [
        {
          "internalType": "uint256",
          "name": "tokenId",
          "type": "uint256"
        }
      ],
      "name": "ownerOf",
      "outputs": [
        {
          "internalType": "address",
          "name": "",
          "type": "address"
        }
      ],
      "stateMutability": "view",
      "type": "function"
    },
    {
      "inputs": [
        {
          "internalType": "address",
          "name": "from",
          "type": "address"
        },
        {
          "internalType": "address",
          "name": "to",
          "type": "address"
        },
        {
          "internalType": "uint256",
          "name": "tokenId",
          "type": "uint256"
        }
      ],
      "name": "safeTransferFrom",
      "outputs": [],
      "stateMutability": "nonpayable",
      "type": "function"
    },
    {
      "inputs": [
        {
          "internalType": "address",
          "name": "from",
          "type": "address"
        },
        {
          "internalType": "address",
          "name": "to",
          "type": "address"
        },
        {
          "internalType": "uint256",
          "name": "tokenId",
          "type": "uint256"
        },
        {
          "internalType": "bytes",
          "name": "data",
          "type": "bytes"
        }
      ],
      "name": "safeTransferFrom",
      "outputs": [],
      "stateMutability": "nonpayable",
      "type": "function"
    },
    {
      "inputs": [
        {
          "internalType": "address",
          "name": "operator",
          "type": "address"
        },
        {
          "internalType": "bool",
          "name": "approved",
          "type": "bool"
        }
      ],
      "name": "setApprovalForAll",
      "outputs": [],
      "stateMutability": "nonpayable",
      "type": "function"
    },
    {
      "inputs": [
        {
          "internalType": "bytes4",
          "name": "interfaceId",
          "type": "bytes4"
        }
      ],
      "name": "supportsInterface",
      "outputs": [
        {
          "internalType": "bool",
          "name": "",
          "type": "bool"
        }
      ],
      "stateMutability": "view",
      "type": "function"
    },
    {
      "inputs": [],
      "name": "symbol",
      "outputs": [
        {
          "internalType": "string",
          "name": "",
          "type": "string"
        }
      ],
      "stateMutability": "view",
      "type": "function"
    },
    {
      "inputs": [
        {
          "internalType": "uint256",
          "name": "tokenId",
          "type": "uint256"
        }
      ],
      "name": "tokenURI",
      "outputs": [
        {
          "internalType": "string",
          "name": "",
          "type": "string"
        }
      ],
      "stateMutability": "view",
      "type": "function"
    },
    {
      "inputs": [
        {
          "internalType": "address",
          "name": "from",
          "type": "address"
        },
        {
          "internalType": "address",
          "name": "to",
          "type": "address"
        },
        {
          "internalType": "uint256",
          "name": "tokenId",
          "type": "uint256"
        }
      ],
      "name": "transferFrom",
      "outputs": [],
      "stateMutability": "nonpayable",
      "type": "function"
    }
  ],
  "bytecode": "0x60806040526001600655348015610014575f5ffd5b506040516112fc3803806112fc833981016040819052610033916100f4565b81815f61004083826101dd565b50600161004d82826101dd565b5050505050610297565b634e487b7160e01b5f52604160045260245ffd5b5f82601f83011261007a575f5ffd5b81516001600160401b0381111561009357610093610057565b604051601f8201601f19908116603f011681016001600160401b03811182821017156100c1576100c1610057565b6040528181528382016020018510156100d8575f5ffd5b8160208501602083015e5f918101602001919091529392505050565b5f5f60408385031215610105575f5ffd5b82516001600160401b0381111561011a575f5ffd5b6101268582860161006b565b602085015190935090506001600160401b03811115610143575f5ffd5b61014f8582860161006b565b9150509250929050565b600181811c9082168061016d57607f821691505b60208210810361018b57634e487b7160e01b5f52602260045260245ffd5b50919050565b601f8211156101d857805f5260205f20601f840160051c810160208510156101b65750805b601f840160051c820191505b818110156101d5575f81556001016101c2565b50505b505050565b81516001600160401b038111156101f6576101f6610057565b61020a816102048454610159565b84610191565b6020601f82116001811461023c575f83156102255750848201515b5f19600385901b1c1916600184901b1784556101d5565b5f84815260208120601f198516915b8281101561026b578785015182556020948501946001909201910161024b565b508482101561028857868401515f19600387901b60f8161c191681555b50505050600190811b01905550565b611058806102a45f395ff3fe608060405234801561000f575f5ffd5b50600436106100fb575f3560e01c80636352211e11610093578063b88d4fde11610063578063b88d4fde14610217578063bcf502691461022a578063c87b56dd1461023d578063e985e9c514610250575f5ffd5b80636352211e146101c857806370a08231146101db57806395d89b41146101fc578063a22cb46514610204575f5ffd5b806323b872dd116100ce57806323b872dd1461017c57806340c10f191461018f57806342842e0e146101a257806342966c68146101b5575f5ffd5b806301ffc9a7146100ff57806306fdde0314610127578063081812fc1461013c578063095ea7b314610167575b5f5ffd5b61011261010d366004610ce1565b610263565b60405190151581526020015b60405180910390f35b61012f6102b4565b60405161011e9190610d2a565b61014f61014a366004610d3c565b610343565b6040516001600160a01b03909116815260200161011e565b61017a610175366004610d6e565b61036a565b005b61017a61018a366004610d96565b610379565b61017a61019d366004610d6e565b610407565b61017a6101b0366004610d96565b610411565b61017a6101c3366004610d3c565b610430565b61014f6101d6366004610d3c565b610491565b6101ee6101e9366004610dd0565b61049b565b60405190815260200161011e565b61012f6104e0565b61017a610212366004610de9565b6104ef565b61017a610225366004610e36565b6104fa565b6101ee610238366004610dd0565b610512565b61012f61024b366004610d3c565b61053c565b61011261025e366004610f13565b6105ad565b5f6001600160e01b031982166380ac58cd60e01b148061029357506001600160e01b03198216635b5e139f60e01b145b806102ae57506301ffc9a760e01b6001600160e01b03198316145b92915050565b60605f80546102c290610f44565b80601f01602080910402602001604051908101604052809291908181526020018280546102ee90610f44565b80156103395780601f1061031057610100808354040283529160200191610339565b820191905f5260205f20905b81548152906001019060200180831161031c57829003601f168201915b5050505050905090565b5f61034d826105da565b505f828152600460205260409020546001600160a01b03166102ae565b610375828233610612565b5050565b6001600160a01b0382166103a757604051633250574960e11b81525f60048201526024015b60405180910390fd5b5f6103b383833361061f565b9050836001600160a01b0316816001600160a01b031614610401576040516364283d7b60e01b81526001600160a01b038086166004830152602482018490528216604482015260640161039e565b50505050565b6103758282610711565b61042b83838360405180602001604052805f8152506104fa565b505050565b61043981610491565b6001600160a01b0316336001600160a01b0316146104855760405162461bcd60e51b81526020600482015260096024820152683737ba1037bbb732b960b91b604482015260640161039e565b61048e81610772565b50565b5f6102ae826105da565b5f6001600160a01b0382166104c5576040516322718ad960e21b81525f600482015260240161039e565b506001600160a01b03165f9081526003602052604090205490565b6060600180546102c290610f44565b6103753383836107aa565b610505848484610379565b6104013385858585610871565b5f61051f82600654610711565b60068054905f61052e83610f7c565b909155505060065492915050565b6060610547826105da565b505f61055d60408051602081019091525f815290565b90505f81511161057b5760405180602001604052805f8152506105a6565b8061058584610999565b604051602001610596929190610fb7565b6040516020818303038152906040525b9392505050565b6001600160a01b039182165f90815260056020908152604080832093909416825291909152205460ff1690565b5f818152600260205260408120546001600160a01b0316806102ae57604051637e27328960e01b81526004810184905260240161039e565b61042b8383836001610a29565b5f828152600260205260408120546001600160a01b039081169083161561064b5761064b818486610b2d565b6001600160a01b03811615610685576106665f855f5f610a29565b6001600160a01b0381165f90815260036020526040902080545f190190555b6001600160a01b038516156106b3576001600160a01b0385165f908152600360205260409020805460010190555b5f8481526002602052604080822080546001600160a01b0319166001600160a01b0389811691821790925591518793918516917fddf252ad1be2c89b69c2b068fc378daa952ba7f163c4a11628f55a4df523b3ef91a4949350505050565b6001600160a01b03821661073a57604051633250574960e11b81525f600482015260240161039e565b5f61074683835f61061f565b90506001600160a01b0381161561042b576040516339e3563760e11b81525f600482015260240161039e565b5f61077e5f835f61061f565b90506001600160a01b03811661037557604051637e27328960e01b81526004810183905260240161039e565b6001600160a01b0383166107d35760405163a9fbf51f60e01b81525f600482015260240161039e565b6001600160a01b03821661080557604051630b61174360e31b81526001600160a01b038316600482015260240161039e565b6001600160a01b038381165f81815260056020908152604080832094871680845294825291829020805460ff191686151590811790915591519182527f17307eab39ab6107e8899845ad3d59bd9653f200f220920489ca2b5937696c31910160405180910390a3505050565b6001600160a01b0383163b1561099257604051630a85bd0160e11b81526001600160a01b0384169063150b7a02906108b3908890889087908790600401610fcb565b6020604051808303815f875af19250505080156108ed575060408051601f3d908101601f191682019092526108ea91810190611007565b60015b610954573d80801561091a576040519150601f19603f3d011682016040523d82523d5f602084013e61091f565b606091505b5080515f0361094c57604051633250574960e11b81526001600160a01b038516600482015260240161039e565b805160208201fd5b6001600160e01b03198116630a85bd0160e11b1461099057604051633250574960e11b81526001600160a01b038516600482015260240161039e565b505b5050505050565b60605f6109a583610b91565b60010190505f8167ffffffffffffffff8111156109c4576109c4610e22565b6040519080825280601f01601f1916602001820160405280156109ee576020820181803683370190505b5090508181016020015b5f19016f181899199a1a9b1b9c1cb0b131b232b360811b600a86061a8153600a85049450846109f857509392505050565b8080610a3d57506001600160a01b03821615155b15610afe575f610a4c846105da565b90506001600160a01b03831615801590610a785750826001600160a01b0316816001600160a01b031614155b8015610a8b5750610a8981846105ad565b155b15610ab45760405163a9fbf51f60e01b81526001600160a01b038416600482015260240161039e565b8115610afc5783856001600160a01b0316826001600160a01b03167f8c5be1e5ebec7d5bd14f71427d1e84f3dd0314c0f7b2291e5b200ac8c7c3b92560405160405180910390a45b505b50505f90815260046020526040902080546001600160a01b0319166001600160a01b0392909216919091179055565b610b38838383610c68565b61042b576001600160a01b038316610b6657604051637e27328960e01b81526004810182905260240161039e565b60405163177e802f60e01b81526001600160a01b03831660048201526024810182905260440161039e565b5f8072184f03e93ff9f4daa797ed6e38ed64bf6a1f0160401b8310610bcf5772184f03e93ff9f4daa797ed6e38ed64bf6a1f0160401b830492506040015b6d04ee2d6d415b85acef81000000008310610bfb576d04ee2d6d415b85acef8100000000830492506020015b662386f26fc100008310610c1957662386f26fc10000830492506010015b6305f5e1008310610c31576305f5e100830492506008015b6127108310610c4557612710830492506004015b60648310610c57576064830492506002015b600a83106102ae5760010192915050565b5f6001600160a01b03831615801590610cc45750826001600160a01b0316846001600160a01b03161480610ca15750610ca184846105ad565b80610cc457505f828152600460205260409020546001600160a01b038481169116145b949350505050565b6001600160e01b03198116811461048e575f5ffd5b5f60208284031215610cf1575f5ffd5b81356105a681610ccc565b5f81518084528060208401602086015e5f602082860101526020601f19601f83011685010191505092915050565b602081525f6105a66020830184610cfc565b5f60208284031215610d4c575f5ffd5b5035919050565b80356001600160a01b0381168114610d69575f5ffd5b919050565b5f5f60408385031215610d7f575f5ffd5b610d8883610d53565b946020939093013593505050565b5f5f5f60608486031215610da8575f5ffd5b610db184610d53565b9250610dbf60208501610d53565b929592945050506040919091013590565b5f60208284031215610de0575f5ffd5b6105a682610d53565b5f5f60408385031215610dfa575f5ffd5b610e0383610d53565b915060208301358015158114610e17575f5ffd5b809150509250929050565b634e487b7160e01b5f52604160045260245ffd5b5f5f5f5f60808587031215610e49575f5ffd5b610e5285610d53565b9350610e6060208601610d53565b925060408501359150606085013567ffffffffffffffff811115610e82575f5ffd5b8501601f81018713610e92575f5ffd5b803567ffffffffffffffff811115610eac57610eac610e22565b604051601f8201601f19908116603f0116810167ffffffffffffffff81118282101715610edb57610edb610e22565b604052818152828201602001891015610ef2575f5ffd5b816020840160208301375f6020838301015280935050505092959194509250565b5f5f60408385031215610f24575f5ffd5b610f2d83610d53565b9150610f3b60208401610d53565b90509250929050565b600181811c90821680610f5857607f821691505b602082108103610f7657634e487b7160e01b5f52602260045260245ffd5b50919050565b5f60018201610f9957634e487b7160e01b5f52601160045260245ffd5b5060010190565b5f81518060208401855e5f93019283525090919050565b5f610cc4610fc58386610fa0565b84610fa0565b6001600160a01b03858116825284166020820152604081018390526080606082018190525f90610ffd90830184610cfc565b9695505050505050565b5f60208284031215611017575f5ffd5b81516105a681610ccc56fea264697066735822122083fc95e3247b373f2aa40ff31296770a7f1134edec5cda891ecb70d77687bc2364736f6c634300081c0033",
  "linkReferences": {},
  "deployedLinkReferences": {},
  "immutableReferences": {},
  "inputSourceName": "project/contracts/MetaNFT.sol",
  "buildInfoId": "solc-0_8_28-22be1d41f9bd6231e16953d92f3b1670192db868"
}